S00B00004D43502E7372656339
S11300000C9444000C9461000C9461000C94610005
S11300100C9461000C9461000C9461000C946100D8
S11300200C9461000C9461000C9461000C946100C8
S11300300C9461000C9461000C9461000C946100B8
S11300400C9488000C9461000C94CB020C94420331
S11300500C9484030C9444010C9461000C9461008E
S11300600C9461000C946100EA00F300FF000801A5
S113007011011E013D013D013D013D013D013D01D7
S11300803D013D012701340111241FBECFEFD8E00B
S1130090DEBFCDBF11E0A0E0B1E0E8E1FBE002C0CB
S11300A005900D92A230B107D9F722E0A2E0B1E0A9
S11300B001C01D92A133B207E1F70E94BE010C9466
S11300C08A050C94000085B5826085BDEEE6F0E0FB
S11300D08081816080830895CF93DF931F92CDB791
S11300E0DEB7898395B18981937C880F880F892B2A
S11300F085B90F90DF91CF91089589B18695869542
S113010080958F730895259A249A239A229A0895A4
S11301101F920F920FB60F9211242F933F934F9378
S11301205F936F937F938F939F93AF93BF93EF935B
S1130130FF930E948502FF91EF91BF91AF919F9130
S11301408F917F916F915F914F913F912F910F907C
S11301500FBE0F901F901895CF93DF931F92CDB7CA
S1130160DEB780910801909109019C012F5F3F4FF8
S1130170309309012093080181319742C8F080919E
S11301800601909107019C012F5F3F4F30930701B7
S1130190209306010B9740F095B181E0892785B93A
S11301A010920701109206011092090110920801A1
S11301B00E94F00183FF64C0E09132018E2F90E031
S11301C0FC013197E031F10508F057C0EC5CFF4FBA
S11301D00C94840548E050E060E070E08AE091E02F
S11301E00E94B9044DC00E947D00898348E050E01C
S11301F060E070E0CE0101960E94B90441C044E081
S113020050E060E070E081E191E00E94190438C0A0
S113021048E050E060E070E081E291E00E9419045F
S11302202FC048E050E060E070E08AE091E00E9476
S1130230B90480910A010E946C0022C044E050E09D
S113024060E070E081E191E00E94190419C048E087
S113025050E060E070E08AE091E00E94B90480918F
S11302600A010E946C000CC044E050E060E070E0C1
S113027081E191E00E94190403C081E00E94D70348
S11302800F90DF91CF9108951F920F920FB60F92A6
S113029011242F933F938F939F93AF93BF93EF9327
S11302A0FF9380910401909105019C012F5F3F4FC2
S11302B0309305012093040185369105C8F080919F
S11302C00201909103019C012F5F3F4F3093030182
S11302D020930201459740F095B182E0892785B9C2
S11302E01092030110920201109205011092040170
S11302F09091000181E0890F80930001823070F1B8
S1130300EAE7F0E080818F77808380917C008F70B2
S1130310E82FF0E0A8E7B0E02D913C911197EE0FA3
S1130320FF1FEF5DFE4F3183208311961C921E92B6
S11303308F5F863008F080E0ECE7F0E09081907FFA
S1130340892B8083EAE7F0E080818068808381E004
S11303508093000180818064808303C09E5F9093BA
S11303600001FF91EF91BF91AF919F918F913F91C8
S11303702F910F900FBE0F901F901895209A219ADD
S1130380259A8FEF84B90E94830010927C00EAE7DB
S1130390F0E088EA80838081876080838081806444
S11303A08083789481E00E94F3010E94A8030E9454
S11303B063009FE088E10FB6F894A89580936000ED
S11303C00FBE90936000D8E0C0E0A8950E94AC00F6
S11303D04F9902C08C2F01C08D2F0E946C00F5CF65
S11303E080910E01089580930B010895CF93DF93BC
S11303F0EC016F5FD9F0FC01DC01A60FB11D2FEFFA
S11304003FEF9081292798E0A9014170552736953F
S11304102795452B21F081E0282780EA3827915041
S113042099F73196EA17FB0761F702C02FEF3FEF08
S1130430462F50E0FE01E40FF51F808190E0B901E2
S113044077278617970759F4DA011196AC0FBD1F69
S11304508C9190E0632F77278617970749F02083C4
S11304604F5F5F4FFE01E40FF51F308380E001C052
S113047081E0DF91CF910895FB01F695E795F6951C
S1130480E795F695E795E80FF91F808190E067708E
S1130490772702C0959587956A95E2F780FF16C085
S11304A0F901F695E795F695E795F695E795E40F46
S11304B0F51F40812770332781E090E002C0880F48
S11304C0991F2A95E2F7842B80830895F901F69504
S11304D0E795F695E795F695E795E40FF51F4081C6
S11304E02770332781E090E002C0880F991F2A9576
S11304F0E2F7809584238083089580E280930E013F
S113050010920D0110920C01089580910E0185FF47
S113051041C080910C0190910D01019690930D01C1
S113052080930C0180910E0181FF29C080910C0100
S113053090910D01079731F480910E0180648093AE
S11305400E01089580910C0190910D01429711F5CF
S113055088E080930E019091310180910B019813F2
S11305600BC060910F0170911001635081E391E021
S11305700E94F60181110EC00E947D0208958091AF
S11305800C0190910D01409729F480910E01816036
S113059080930E0108951F920F920FB60F921124AB
S11305A02F933F934F935F936F937F938F939F9377
S11305B0AF93BF93EF93FF939091C60010920D01F8
S11305C010920C0180910E0183FD2CC080910E01CC
S11305D084FD28C080910E0182FD24C080910E010B
S11305E081FF20C080910E0180FD1CC020910F016D
S11305F0309110012F3F310521F018F00E947D0247
S113060030C0E0910F01F0911001EF5CFE4F908338
S113061080910F01909110010196909310018093A5
S11306200F011FC080910E0183FD1BC080910E013C
S113063084FD17C080910E0182FD13C080910E01CC
S113064081FD0FC080910E0180FF0BC0909331019A
S113065082E280930E0181E090E0909310018093F8
S11306600F01FF91EF91BF91AF919F918F917F9176
S11306706F915F914F913F912F910F900FBE0F900B
S11306801F9018951F920F920FB60F9211242F935B
S11306903F938F939F93EF93FF9380910E018F7EEF
S11306A080930E0180910E01846080930E01E0918D
S11306B00F01F0911001EF5CFE4F80818093C60022
S11306C080910F01909110010196909310018093F5
S11306D00F018091010120910F013091100190E0F0
S11306E001968217930729F4E1ECF0E080818F7D75
S11306F08083FF91EF919F918F913F912F910F9064
S11307000FBE0F901F9018951F920F920FB60F9265
S113071011242F933F934F935F936F937F938F9302
S11307209F93AF93BF93EF93FF930E947D02FF913A
S1130730EF91BF91AF919F918F917F916F915F9155
S11307404F913F912F910F900FBE0F901F901895CE
S11307501092C50080E48093C40082E08093C000BE
S113076086E08093C20088ED8093C10080E280938C
S11307700E01089592E0980F90930101682F81E390
S113078091E00E94F60180910E01806180930E0138
S11307901092100110920F01E1ECF0E08081806270
S11307A0808380910E01877F80930E010895E1E399
S11307B0F1E0918190689183828382E00E94BA0380
S11307C00895E1E3F1E08581248190E0922B08957E
S11307D0E1E3F1E08381228190E0922B08954423A8
S11307E081F0A82FB92FE62FF72F80E02D913C91AF
S11307F0119730832D913D9121838F5F3296481359
S1130800F5CF08954423A1F0E82FF92FA62FB72F91
S113081020E08081318190E0982F8827830F911DFB
S113082011969C938E9312962F5F32964213F1CFBA
S11308300895CF92DF92EF92FF920F931F93CF937D
S1130840DF936C018B01EA010E94E1037C010E94A9
S1130850E80320913201263019F4EE24E394F12CBC
S11308608017910708F476C0C00FD11F9701280F95
S1130870391FC217D30708F46DC020913201233009
S113088021F020913201243009F59701220F331F02
S11308902C3F3105B0F49E2D990FC1E3D1E09A832A
S11308A0801B90E0880F991F4E2D64E371E08C0D3E
S11308B09D1D0E94EF038A818E5F0E94BA0381E02E
S11308C04FC083E00E94D70380E04AC020913201E8
S11308D0203159F52091370130E0A701440F551F0D
S11308E024173507E8F040910F0150911001209131
S11308F037014950510930E04217530788F0801BF3
S1130900682F70E0660F771F6C0D7D1D4E2D88E3F8
S113091091E00E94020485E00E94BA0381E020C0B5
S113092083E00E94D70380E01BC02091320126306F
S1130930B1F4801B682F70E0660F771F6C0D7D1D6E
S113094041E085E391E00E94020485E00E94BA033D
S113095081E006C083E00E94D70380E001C080E00C
S1130960DF91CF911F910F91FF90EF90DF90CF9087
S11309700895CF92DF92EF92FF920F931F93CF933C
S1130980DF936C017B01EA010E94E1038C010E9468
S1130990E80320913201253011F401E010E08E15B6
S11309A09F0508F4A2C0CE0DDF1D9801280F391F42
S11309B0C217D30708F499C020913201223029F0DC
S11309C020913201213009F041C0093D27E012078E
S11309D0C0F5980136952795369527953695279530
S11309E020933301A80147705527452B69F033271D
S11309F0A1E3B1E0F901EC5CFE4F108212962C9158
S1130A0012972F5F12962C930115110599F0C0E0EF
S1130A10D0E09C012E193F097901B7016C0F7D1FAD
S1130A209E0144E351E0C6010E943C0221960C174A
S1130A301D0799F7809133018E5F0E94BA0381E00C
S1130A405AC083E00E94D70380E055C02091320150
S1130A502F30C1F52091370130E0220F331F220FD0
S1130A60331F220F331F2017310738F140910F0134
S1130A7050911001209137014950510930E042173B
S1130A805307D8F00115110599F0C0E0D0E09C019E
S1130A902E193F09790197012C0F3D1FA601BE01B4
S1130AA088E391E00E943C0221960C171D0799F7F8
S1130AB085E00E94BA0381E01EC083E00E94D70350
S1130AC080E019C0209132012530A1F49C012E1937
S1130AD03F09A60160E070E085E391E00E943C02DA
S1130AE085E00E94BA0381E006C083E00E94D70338
S1130AF080E001C080E0DF91CF911F910F91FF90C2
S1130B00EF90DF90CF900895EE0FFF1F0590F491C2
S10B0B10E02D0994F894FFCFD5
S1050B180107CF
S9030000FC
