:100000000C9475000C94B1070C94B1070C94B107D3
:100010000C94B1070C94B1070C94B1070C945703DE
:100020000C94B1070C94B1070C94B1070C94B10770
:100030000C94B1070C94B1070C94B1070C94B10760
:100040000C9456060C94B1070C949F040C94A205D2
:100050000C947A060C9425060C94B1070C94B10705
:100060000C94B1070C94B107E702F002FC020503FF
:100070000E031B035003500350035003500350035F
:10008000500350032F033C03023502368002360230
:10009000378002370238800223022580022502279A
:1000A0008002270229800229022B80022B022D8048
:1000B000022D022F80022F023180000000088002F2
:1000C000380239800239023A800100022380023A64
:1000D000023B80023B023C000F6602310233800289
:1000E0003C023D8002330235800011241FBECFEF59
:1000F000D8E0DEBFCDBFE8E8F0E040E017C0B59142
:10010000A59135912591059107FD0CC0959185919B
:10011000EF01F92FE82F05900D92A217B307D9F739
:10012000FE0104C01D92A217B307E1F7E93EF407F0
:0E01300031F70E949F000C949D00F894FFCFC1
:10013E008FEF84B9ECE7F0E0108280E48083EAE789
:10014E00F0E088EA8083808187608083808180648C
:10015E00808381E00E94AE070E941B070E947B07EE
:10016E000E94F406789440E050E060E828E030E029
:10017E0085E091E00E942D072AE230E58EEF90E0B7
:10018E002150304080409040D9F700009FE088E138
:10019E000FB6F894A895809360000FBE9093600000
:1001AE0001E111E0C1E0D2E00F2EF5E0EF2EF1E01B
:1001BE00FF2EF02D809138028823B9F02091030193
:1001CE0030910401ADECBCEC0E94620792958295D1
:1001DE008F7089279F708927F801918380831092F1
:1001EE0004011092030110923802A8950E94A902F0
:1001FE00909101012C2F4D9920E080910D01822BC1
:10020E00E9F18C2F933008F080E08823B9F1109239
:10021E003602809139028E7F8093390280913902A5
:10022E008D7F8093390280913902877F80933902C6
:10023E00109202011092210110920F0110921001E2
:10024E0010920D0110923502F80140815181F70193
:10025E00808191812C2F8417950708F020E0F801FA
:10026E0060817181F701428153819C2F641775075C
:10027E0008F090E0322F392389B11DC0F801A0811A
:10028E00B181F701C080D180F80160817181F701E1
:10029E004281538189B120913602211154C02C2FF5
:1002AE00CA16DB0608F020E09C2F6417750708F0CD
:1002BE0090E0322F39238823D4F18091390288605F
:1002CE0080933902C093020180910E01882309F4B4
:1002DE0069C031111FC0C0930F0180912201882384
:1002EE0071F080913902877F809339022111C0937A
:1002FE003602992309F456C0D093360253C080912A
:10030E003902816080933902809139028260809334
:10031E00390248C0809139028E7F809339028091D4
:10032E0039028D7F8093390210920F013BC080916C
:10033E003902877F809339021092020110922101B7
:10034E0010920F012FC080913502811105C09F5F61
:10035E0090930101C093350280910101833010F416
:10036E00C093100180913902877F809339021092D9
:10037E000201C093210180910001882399F0213060
:10038E0031F4809139028D278093390207C02230D3
:10039E0029F4809139028C27809339021092000142
:0E03AE0010922101809139020E94510703CF65
:1003BC00CF92DF92EF92FF920F931F93CF93DF9325
:1003CC006C017B01EA010E948C078C010E9493074F
:1003DC0020912401253011F401E010E08E159F05C9
:1003EC0008F4A2C0CE0DDF1D9801280F391FC217CB
:1003FC00D30708F499C020912401223029F02091D0
:10040C002401213009F041C0093D27E01207C0F555
:10041C0098013695279536952795369527952093EF
:10042C002501A80147705527452B69F03327A3E216
:10043C00B1E0F901EA5DFE4F108212962C911297F1
:10044C002F5F12962C930115110599F0C0E0D0E0A6
:10045C009C012E193F097901B7016C0F7D1F9E017C
:10046C0046E251E0C6010E94E40521960C171D07D7
:10047C0099F7809125018E5F0E94C00681E05AC0D9
:10048C0083E00E94710780E055C0209124012F3039
:10049C00C1F52091290130E0220F331F220F331FA9
:1004AC00220F331F2017310738F14091330250913E
:1004BC003402209129014950510930E04217530769
:1004CC00D8F00115110599F0C0E0D0E09C012E196F
:1004DC003F09790197012C0F3D1FA601BE018AE24D
:1004EC0091E00E94E40521960C171D0799F785E011
:1004FC000E94C00681E01EC083E00E94710780E06C
:10050C0019C0209124012530A1F49C012E193F091A
:10051C00A60160E070E087E291E00E94E40585E0CE
:10052C000E94C00681E006C083E00E94710780E053
:10053C0001C080E0DF91CF911F910F91FF90EF9060
:06054C00DF90CF9008953E
:10055200CF93DF931F92CDB7DEB7809125029091A2
:1005620026029C012F5F3F4F3093260220932502E3
:1005720081319742C8F080912302909124029C011C
:100582002F5F3F4F30932402209323020B9740F0BA
:1005920095B181E0892785B9109224021092230235
:1005A20010922602109225020E94AB0783FF7AC0A6
:1005B200E09124018E2F90E0FC013197E031F105AA
:1005C20008F06DC0EC5CFF4F0C94A00748E050E0CF
:1005D20060E070E089E392E00E94DE0163C00E9465
:1005E2009A07898348E050E060E070E0CE0101960E
:1005F2000E94DE0157C044E050E060E070E085E018
:1006020091E00E94FF034EC048E050E060E070E0DD
:1006120081E191E00E94FF0345C048E050E060E0C4
:1006220070E089E392E00E94DE01809139020E942B
:10063200510738C044E050E060E070E085E091E0AE
:100642000E94FF0365E071E080E828E030E040E0CE
:1006520050E00E949E06F999FECF24C048E050E087
:1006620060E070E089E392E00E94DE01809139024D
:100672000E94510717C044E050E060E070E085E05E
:1006820091E00E94FF0365E071E080E828E030E03D
:1006920040E050E00E949E06F999FECF03C081E03F
:0C06A2000E9471070F90DF91CF91089526
:1006AE001F920F920FB60F9211242F933F938F9399
:1006BE009F9380912F02909130029C012F5F3F4FAC
:1006CE003093300220932F02853F914040F095B138
:1006DE0082E0892785B91092300210922F02809104
:1006EE0002018823B1F080912D0290912E029C017F
:1006FE002F5F3F4F30932E0220932D028938934166
:10070E0070F081E080930E0110922E0210922D0255
:10071E0006C010922E0210922D0210920E018091A0
:10072E0021018823B1F080912B0290912C029C0123
:10073E002F5F3F4F30932C0220932B02893E934024
:10074E0070F081E08093000110922C0210922B0227
:10075E0006C010922C0210922B0210920001809172
:10076E000F018823B1F08091290290912A029C01F9
:10077E002F5F3F4F30932A022093290289389341ED
:10078E0070F081E08093220110922A0210922902C9
:10079E0006C010922A021092290210922201809114
:1007AE0010018823B1F080912702909128029C01BC
:1007BE002F5F3F4F309328022093270281319742BB
:1007CE0070F081E080930D011092280210922702A2
:1007DE0006C0109228021092270210920D019F91CE
:1007EE008F913F912F910F900FBE0F901F901895E4
:1007FE00CF92DF92EF92FF920F931F93CF93DF93DF
:10080E006C018B01EA010E948C077C010E94930708
:10081E0020912401263019F4EE24E394F12C801754
:10082E00910708F476C0C00FD11F9701280F391F0A
:10083E00C217D30708F46DC020912401233021F094
:10084E0020912401243009F59701220F331F2C3FEC
:10085E003105B0F49E2D990FC3E2D1E09A83801B2F
:10086E0090E0880F991F4E2D66E271E08C0D9D1D54
:10087E000E9408078A818E5F0E94C00681E04FC0E9
:10088E0083E00E94710780E04AC02091240120314C
:10089E0059F52091290130E0A701440F551F241767
:1008AE003507E8F04091330250913402209129012E
:1008BE004950510930E04217530788F0801B682FCA
:1008CE0070E0660F771F6C0D7D1D4E2D8AE291E054
:1008DE000E94DD0685E00E94C00681E020C083E014
:1008EE000E94710780E01BC0209124012630B1F4D4
:1008FE00801B682F70E0660F771F6C0D7D1D41E029
:10090E0087E291E00E94DD0685E00E94C00681E04C
:10091E0006C083E00E94710780E001C080E0DF9195
:10092E00CF911F910F91FF90EF90DF90CF90089590
:10093E001F920F920FB60F9211242F933F934F9346
:10094E005F936F937F938F939F93AF93BF93EF9329
:10095E00FF939091C6001092320210923102809154
:10096E003C0283FD2CC080913C0284FD28C0809106
:10097E003C0282FD24C080913C0281FF20C0809108
:10098E003C0280FD1CC020913302309134022F3F77
:10099E00310521F018F00E94840730C0E091330237
:1009AE00F0913402ED5DFE4F908380913302909171
:1009BE003402019690933402809333021FC08091CB
:1009CE003C0283FD1BC080913C0284FD17C08091C8
:1009DE003C0282FD13C080913C0281FD0FC08091CC
:1009EE003C0280FF0BC09093230182E280933C0275
:1009FE0081E090E09093340280933302FF91EF9167
:100A0E00BF91AF919F918F917F916F915F914F9118
:0E0A1E003F912F910F900FBE0F901F901895D3
:100A2C00CF93DF93EC016F5FD9F0FC01DC01A60FD3
:100A3C00B11D2FEF3FEF9081292798E0A90141705C
:100A4C00552736952795452B21F081E0282780EAFC
:100A5C003827915099F73196EA17FB0761F702C0D6
:100A6C002FEF3FEF462F50E0FE01E40FF51F808182
:100A7C0090E0B90177278617970759F4DA01119698
:100A8C00AC0FBD1F8C9190E0632F772786179707CB
:100A9C0049F020834F5F5F4FFE01E40FF51F308359
:0C0AAC0080E001C081E0DF91CF9108954F
:100AB80080913C0285FF41C08091310290913202C1
:100AC8000196909332028093310280913C0281FF1B
:100AD80029C08091310290913202079731F48091B8
:100AE8003C02806480933C02089580913102909189
:100AF8003202429711F588E080933C0290912301DD
:100B080080913A0298130BC06091330270913402BD
:100B1800635083E291E00E94160581110EC00E9485
:100B2800840708958091310290913202409729F408
:0C0B380080913C02816080933C02089593
:100B44001F920F920FB60F9211242F933F938F93FE
:100B54009F93EF93FF9380913C028F7E80933C029E
:100B640080913C02846080933C02E0913302F091D6
:100B74003402ED5DFE4F80818093C6008091330284
:100B840090913402019690933402809333028091C1
:100B94003B02209133023091340290E00196821797
:100BA400930729F4E1ECF0E080818F7D8083FF914D
:100BB400EF919F918F913F912F910F900FBE0F90C6
:040BC4001F901895D1
:100BC800FB01F695E795F695E795F695E795E80F15
:100BD800F91F808190E06770772702C09595879507
:100BE8006A95E2F780FF16C0F901F695E795F69544
:100BF800E795F695E795E40FF51F408127703327B1
:100C080081E090E002C0880F991F2A95E2F7842BB3
:100C180080830895F901F695E795F695E795F69599
:100C2800E795E40FF51F40812770332781E090E0B6
:100C380002C0880F991F2A95E2F780958423808344
:020C480008950D
:100C4A001F920F920FB60F9211242F933F938F93F7
:100C5A009F938091380281111BC0809137028F5F68
:100C6A0080933702853130F081E080933802109208
:100C7A0037020EC0209178003091790080910301EB
:100C8A0090910401820F931F9093040180930301B2
:100C9A009F918F913F912F910F900FBE0F901F90B0
:020CAA0018959B
:100CAC001F920F920FB60F9211242F933F934F93D5
:100CBC005F936F937F938F939F93AF93BF93EF93B8
:100CCC00FF930E945C05FF91EF91BF91AF919F91B3
:100CDC008F917F916F915F914F913F912F910F90D9
:080CEC000FBE0F901F90189538
:100CF4001F920F920FB60F9211242F933F934F938D
:100D04005F936F937F938F939F93AF93BF93EF936F
:100D1400FF930E948407FF91EF91BF91AF919F9140
:100D24008F917F916F915F914F913F912F910F9090
:080D34000FBE0F901F901895EF
:100D3C00CF92DF92EF9221503109C0F06B01E82E77
:100D4C00C20ED31EE11CCA01820F931F422F732FB8
:100D5C00F6015E2D0E94A607262F0E94400731E067
:100D6C00C31AD108E1084150704090F7EF90DF9022
:040D7C00CF90089577
:100D800092E0980F90933B02682F83E291E00E94DB
:100D9000160580913C02806180933C0210923402DF
:100DA00010923302E1ECF0E08081806280838091D8
:0A0DB0003C02877F80933C02089507
:100DBA004423A1F0E82FF92FA62FB72F20E0808136
:100DCA00318190E0982F8827830F911D11969C936B
:0E0DDA008E9312962F5F32964213F1CF08953A
:100DE800E0EBF0E0808182608083E1EBF0E08081DD
:100DF80086608083E0E7F0E0808182608083B99A32
:080E080086E28093B300089517
:100E1000442381F0A82FB92FE62FF72F80E02D91E2
:100E20003C91119730832D913D9121838F5F3296B4
:060E30004813F5CF089500
:100E36001092C50080E48093C40082E08093C000D5
:100E460086E08093C20088ED8093C10080E28093A3
:040E56003C020895BD
:100E5A00BA01A901DC01CB01FC01F999FECF06C058
:100E6A00F2BDE1BDF89A319600B40D92415050405E
:040E7A00B8F7089528
:100E7E00262FF999FECF92BD81BDF89A019700B445
:100E8E00021639F01FBA20BD0FB6F894FA9AF99AE5
:040E9E000FBE0895E6
:100EA200CF93DF931F92CDB7DEB7898395B1898146
:100EB200937C880F880F892B85B90F90DF91CF9192
:020EC200089591
:100EC400A29FB001B39FC001A39F700D811D112487
:0E0ED400911DB29F700D811D1124911D089576
:100EE200E3E2F1E0918190689183828382E00E9443
:040EF200C006089599
:100EF60085B5826085BDEEE6F0E080818160808305
:020F060008954C
:100F080080E280933C0210923202109231020895DE
:0E0F1800E3E2F1E08581248190E0922B0895C0
:0E0F2600E3E2F1E08381228190E0922B0895B6
:0C0F340089B18695869580958F7308958D
:0C0F4000EE0FFF1F0590F491E02D0994C6
:0A0F4C0057FD608157FF649108957E
:060F560080913C020895A9
:060F5C0080933A020895A3
:040F62000C940000EB
:010F66000783
:00000001FF
