:100000000C946C000C94E2060C94E2060C94E2064C
:100010000C94E2060C94E2060C94E2060C94CC03D9
:100020000C94E2060C94E2060C94E2060C94E206B0
:100030000C94E2060C94E2060C94E2060C94E206A0
:100040000C9496050C94E2060C9455030C9413053D
:100050000C94BA050C9434040C94E2060C94E20659
:100060000C94E2060C94E2069F01A801B401BD01C4
:10007000C601D301080208020802080208020802A9
:1000800008020802E701F40102320233800233025F
:1000900034000DC80224022680022602288002288D
:1000A000022A80022A022C80022C022E80000000EC
:1000B00008800234023580010002248002350236B5
:1000C0008002360237000DC9022E0230800237024C
:1000D000388002300232800011241FBECFEFD8E0FA
:1000E000DEBFCDBFE8E8F0E040E017C0B591A591D4
:1000F00035912591059107FD0CC095918591EF01F2
:10010000F92FE82F05900D92A217B307D9F7FE013A
:1001100004C01D92A217B307E1F7E73DF40731F7DA
:0C0120000E940F020C949400F894FFCF92
:10012C00CF92DF92EF92FF920F931F93CF93DF93B7
:10013C006C017B01EA010E94BD068C010E94C40681
:10014C0020912501253011F401E010E08E159F055A
:10015C0008F4A2C0CE0DDF1D9801280F391FC2175D
:10016C00D30708F499C020912501223029F0209161
:10017C002501213009F041C0093D27E01207C0F5E7
:10018C009801369527953695279536952795209382
:10019C002601A80147705527452B69F03327A4E2A7
:1001AC00B1E0F901E95DFE4F108212962C91129785
:1001BC002F5F12962C930115110599F0C0E0D0E039
:1001CC009C012E193F097901B7016C0F7D1F9E010F
:1001DC0047E251E0C6010E94550521960C171D07F8
:1001EC0099F7809126018E5F0E94000681E05AC02B
:1001FC0083E00E94A20680E055C0209125012F309B
:10020C00C1F520912A0130E0220F331F220F331F3A
:10021C00220F331F2017310738F1409130025091D3
:10022C00310220912A014950510930E042175307FD
:10023C00D8F00115110599F0C0E0D0E09C012E1901
:10024C003F09790197012C0F3D1FA601BE018BE2DE
:10025C0091E00E94550521960C171D0799F785E032
:10026C000E94000681E01EC083E00E94A20680E08E
:10027C0019C0209125012530A1F49C012E193F09AC
:10028C00A60160E070E088E291E00E94550585E0EF
:10029C000E94000681E006C083E00E94A20680E076
:1002AC0001C080E0DF91CF911F910F91FF90EF90F3
:0602BC00DF90CF900895D1
:1002C200CF93DF931F92CDB7DEB780912602909134
:1002D20027029C012F5F3F4F309327022093260273
:1002E20081319742C8F080912402909125029C01AD
:1002F2002F5F3F4F30932502209324020B9740F04B
:1003020095B181E0892785B91092250210922402C5
:1003120010922702109226020E94DC0683FF7AC006
:10032200E09125018E2F90E0FC013197E031F1053B
:1003320008F06DC0EC5CFF4F0C94D10648E050E031
:1003420060E070E084E392E00E94960063C00E9445
:10035200CB06898348E050E060E070E0CE01019670
:100362000E94960057C044E050E060E070E081E0F7
:1003720091E00E94B5024EC048E050E060E070E0BB
:1003820082E191E00E94B50245C048E050E060E0A1
:1003920070E084E392E00E949600809134020E9411
:1003A200910638C044E050E060E070E081E091E006
:1003B2000E94B50261E071E080E828E030E040E0B0
:1003C20050E00E94DE05F999FECF24C048E050E0DB
:1003D20060E070E084E392E00E9496008091340233
:1003E2000E94910617C044E050E060E070E081E0B6
:1003F20091E00E94B50261E071E080E828E030E01F
:1004020040E050E00E94DE05F999FECF03C081E092
:0C0412000E94A2060F90DF91CF91089588
:10041E008FEF84B9ECE7F0E0108280E48083EAE7A6
:10042E00F0E088EA808380818760808380818064A9
:10043E00808381E00E94DF060E945B060E94AC066C
:10044E000E943406789440E050E060E828E030E006
:10045E0081E091E00E946D069FE088E10FB6F8946E
:10046E00A895809360000FBE90936000FF24F394D4
:10047E0002E111E0C1E0D1E0A8950E9461014A9924
:10048E0013C010923202809134028E7F8093340218
:10049E00F8016081718148815981A081B181EA8121
:1004AE00FB8199B189B10FC0F801608171814881DA
:1004BE005981A081B181EA81FB8199B189B12091E5
:1004CE003202211130C02F2D86FD20E0222319F19A
:1004DE0099230CF180913402886080933402F0925B
:1004EE000001809122018823A1F18F2D4617570715
:1004FE0008F080E0882339F08F2DAE17BF0708F083
:10050E0080E0811126C080913402877F809334026F
:10051E00F09232021EC080913402877F80933402A3
:10052E001092000116C080913402877F80933402AE
:10053E0010920001F092230180910901882349F065
:10054E00809134028F25809334021092090110920B
:0C055E002301809134020E9491068ECF90
:10056A00CF92DF92EF92FF920F931F93CF93DF9375
:10057A006C018B01EA010E94BD067C010E94C4063F
:10058A0020912501263019F4EE24E394F12C8017EA
:10059A00910708F476C0C00FD11F9701280F391FA1
:1005AA00C217D30708F46DC020912501233021F02A
:1005BA0020912501243009F59701220F331F2C3F82
:1005CA003105B0F49E2D990FC4E2D1E09A83801BC5
:1005DA0090E0880F991F4E2D67E271E08C0D9D1DEA
:1005EA000E9448068A818E5F0E94000681E04FC001
:1005FA0083E00E94A20680E04AC0209125012031B2
:10060A0059F520912A0130E0A701440F551F2417FC
:10061A003507E8F0409130025091310220912A01C9
:10062A004950510930E04217530788F0801B682F60
:10063A0070E0660F771F6C0D7D1D4E2D8BE291E0E9
:10064A000E941D0685E00E94000681E020C083E02A
:10065A000E94A20680E01BC0209125012630B1F439
:10066A00801B682F70E0660F771F6C0D7D1D41E0BF
:10067A0088E291E00E941D0685E00E94000681E062
:10068A0006C083E00E94A20680E001C080E0DF91FC
:10069A00CF911F910F91FF90EF90DF90CF90089527
:1006AA001F920F920FB60F9211242F933F934F93DD
:1006BA005F936F937F938F939F93AF93BF93EF93C0
:1006CA00FF939091C60010922F0210922E028091F1
:1006DA00370283FD2CC08091370284FD28C08091A7
:1006EA00370282FD24C08091370281FF20C08091A9
:1006FA00370280FD1CC020913002309131022F3F19
:10070A00310521F018F00E94B50630C0E0913002A0
:10071A00F0913102EC5DFE4F90838091300290910E
:10072A003102019690933102809330021FC080916A
:10073A00370283FD1BC08091370284FD17C0809168
:10074A00370282FD13C08091370281FD0FC080916C
:10075A00370280FF0BC09093240182E28093370214
:10076A0081E090E09093310280933002FF91EF9103
:10077A00BF91AF919F918F917F916F915F914F91AF
:0E078A003F912F910F900FBE0F901F9018956A
:100798001F920F920FB60F9211242F933F938F93AE
:1007A8009F9380912C0290912D029C012F5F3F4FC7
:1007B80030932D0220932C02853F914040F095B153
:1007C80082E0892785B910922D0210922C0280911F
:1007D80000018823B1F080912A0290912B029C019C
:1007E8002F5F3F4F30932B0220932A028938934181
:1007F80070F081E08093220110922B0210922A025D
:1008080006C010922B0210922A02109222018091A7
:1008180023018823B1F080912802909129029C013C
:100828002F5F3F4F3093290220932802893E93403F
:1008380070F081E080930901109229021092280239
:1008480006C01092290210922802109209019F9165
:100858008F913F912F910F900FBE0F901F90189579
:100868001F920F920FB60F9211242F933F938F93DD
:100878009F93AF93BF93EF93FF939091330281E0DF
:10088800890F80933302823070F1EAE7F0E08081CB
:100898008F77808380917C008F70E82FF0E0A8E745
:1008A800B0E02D913C911197EE0FFF1FEE5EFE4FC9
:1008B8003183208311961C921E928F5F863008F038
:1008C80080E0ECE7F0E09081907F892B8083EAE775
:1008D800F0E080818068808381E0809333028081AA
:1008E8008064808303C09E5F90933302FF91EF91F1
:1008F800BF91AF919F918F913F912F910F900FBE14
:060908000F901F901895EE
:10090E00CF93DF93EC016F5FD9F0FC01DC01A60FF2
:10091E00B11D2FEF3FEF9081292798E0A90141707B
:10092E00552736952795452B21F081E0282780EA1B
:10093E003827915099F73196EA17FB0761F702C0F5
:10094E002FEF3FEF462F50E0FE01E40FF51F8081A1
:10095E0090E0B90177278617970759F4DA011196B7
:10096E00AC0FBD1F8C9190E0632F772786179707EA
:10097E0049F020834F5F5F4FFE01E40FF51F308378
:0C098E0080E001C081E0DF91CF9108956E
:10099A008091370285FF41C080912E0290912F02EB
:1009AA00019690932F0280932E028091370281FF45
:1009BA0029C080912E0290912F02079731F48091DD
:1009CA003702806480933702089580912E029091B5
:1009DA002F02429711F588E0809337029091240103
:1009EA008091350298130BC06091300270913102E8
:1009FA00635084E291E00E94870481110EC00E9434
:100A0A00B506089580912E0290912F02409729F4FD
:0C0A1A00809137028160809337020895BC
:100A26001F920F920FB60F9211242F933F938F931D
:100A36009F93EF93FF93809137028F7E80933702C7
:100A460080913702846080933702E0913002F09102
:100A56003102EC5DFE4F80818093C60080913002AA
:100A660090913102019690933102809330028091E9
:100A76003602209130023091310290E001968217C1
:100A8600930729F4E1ECF0E080818F7D8083FF916C
:100A9600EF919F918F913F912F910F900FBE0F90E5
:040AA6001F901895F0
:100AAA00FB01F695E795F695E795F695E795E80F34
:100ABA00F91F808190E06770772702C09595879526
:100ACA006A95E2F780FF16C0F901F695E795F69563
:100ADA00E795F695E795E40FF51F408127703327D0
:100AEA0081E090E002C0880F991F2A95E2F7842BD3
:100AFA0080830895F901F695E795F695E795F695B9
:100B0A00E795E40FF51F40812770332781E090E0D5
:100B1A0002C0880F991F2A95E2F780958423808363
:020B2A0008952C
:100B2C001F920F920FB60F9211242F933F934F9356
:100B3C005F936F937F938F939F93AF93BF93EF9339
:100B4C00FF930E94CD04FF91EF91BF91AF919F91C4
:100B5C008F917F916F915F914F913F912F910F905A
:080B6C000FBE0F901F901895B9
:100B74001F920F920FB60F9211242F933F934F930E
:100B84005F936F937F938F939F93AF93BF93EF93F1
:100B9400FF930E94B506FF91EF91BF91AF919F9192
:100BA4008F917F916F915F914F913F912F910F9012
:080BB4000FBE0F901F90189571
:100BBC00CF92DF92EF9221503109C0F06B01E82EF9
:100BCC00C20ED31EE11CCA01820F931F422F732F3A
:100BDC00F6015E2D0E94D706262F0E94800631E07A
:100BEC00C31AD108E1084150704090F7EF90DF90A4
:040BFC00CF900895F9
:100C000092E0980F90933602682F84E291E00E9460
:100C100087048091370280618093370210923102FD
:100C200010923002E1ECF0E080818062808380915C
:0A0C30003702877F80933702089592
:100C3A004423A1F0E82FF92FA62FB72F20E08081B7
:100C4A00318190E0982F8827830F911D11969C93EC
:0E0C5A008E9312962F5F32964213F1CF0895BB
:100C6800E0EBF0E0808182608083E1EBF0E080815E
:100C780086608083E0E7F0E0808182608083B99AB3
:080C880086E28093B300089599
:100C9000442381F0A82FB92FE62FF72F80E02D9164
:100CA0003C91119730832D913D9121838F5F329636
:060CB0004813F5CF089582
:100CB6001092C50080E48093C40082E08093C00057
:100CC60086E08093C20088ED8093C10080E2809325
:040CD6003702089544
:100CDA00BA01A901DC01CB01FC01F999FECF06C0DA
:100CEA00F2BDE1BDF89A319600B40D9241505040E0
:040CFA00B8F70895AA
:100CFE00262FF999FECF92BD81BDF89A019700B4C7
:100D0E00021639F01FBA20BD0FB6F894FA9AF99A66
:040D1E000FBE089567
:100D2200CF93DF931F92CDB7DEB7898395B18981C7
:100D3200937C880F880F892B85B90F90DF91CF9113
:020D4200089512
:100D4400E4E2F1E0918190689183828382E00E94E1
:040D540000060895F8
:100D580085B5826085BDEEE6F0E0808181608083A4
:020D68000895EC
:100D6A0080E28093370210922F0210922E02089589
:0E0D7A00E4E2F1E08581248190E0922B08955F
:0E0D8800E4E2F1E08381228190E0922B089555
:0C0D960089B18695869580958F7308952D
:0C0DA200EE0FFF1F0590F491E02D099466
:0A0DAE0057FD608157FF649108951E
:060DB8008091370208954E
:060DBE0080933502089548
:040DC4000C9400008B
:010DC8000129
:010DC9000722
:00000001FF
